{
  "contractName": "ClaimVerifier",
  "abi": [
    {
      "constant": true,
      "inputs": [],
      "name": "trustedClaimHolder",
      "outputs": [
        {
          "name": "",
          "type": "address"
        }
      ],
      "payable": false,
      "stateMutability": "view",
      "type": "function"
    },
    {
      "constant": true,
      "inputs": [],
      "name": "trust",
      "outputs": [
        {
          "name": "",
          "type": "address"
        }
      ],
      "payable": false,
      "stateMutability": "view",
      "type": "function"
    },
    {
      "inputs": [
        {
          "name": "_trustedClaimHolder",
          "type": "address"
        },
        {
          "name": "_trustContract",
          "type": "address"
        }
      ],
      "payable": false,
      "stateMutability": "nonpayable",
      "type": "constructor"
    },
    {
      "anonymous": false,
      "inputs": [
        {
          "indexed": false,
          "name": "_identity",
          "type": "address"
        },
        {
          "indexed": false,
          "name": "claimType",
          "type": "uint256"
        }
      ],
      "name": "ClaimValid",
      "type": "event"
    },
    {
      "anonymous": false,
      "inputs": [
        {
          "indexed": false,
          "name": "_identity",
          "type": "address"
        },
        {
          "indexed": false,
          "name": "claimType",
          "type": "uint256"
        }
      ],
      "name": "ClaimInvalid",
      "type": "event"
    },
    {
      "constant": false,
      "inputs": [
        {
          "name": "_identity",
          "type": "address"
        },
        {
          "name": "claimType",
          "type": "uint256"
        }
      ],
      "name": "checkClaim",
      "outputs": [
        {
          "name": "claimValid",
          "type": "bool"
        }
      ],
      "payable": false,
      "stateMutability": "nonpayable",
      "type": "function"
    },
    {
      "constant": true,
      "inputs": [
        {
          "name": "_identity",
          "type": "address"
        },
        {
          "name": "claimType",
          "type": "uint256"
        }
      ],
      "name": "claimIsValid",
      "outputs": [
        {
          "name": "claimValid",
          "type": "bool"
        }
      ],
      "payable": false,
      "stateMutability": "view",
      "type": "function"
    },
    {
      "constant": true,
      "inputs": [
        {
          "name": "sig",
          "type": "bytes"
        },
        {
          "name": "dataHash",
          "type": "bytes32"
        }
      ],
      "name": "getRecoveredAddress",
      "outputs": [
        {
          "name": "addr",
          "type": "address"
        }
      ],
      "payable": false,
      "stateMutability": "pure",
      "type": "function"
    }
  ],
  "bytecode": "0x608060405234801561001057600080fd5b50604051604080610d0e8339810180604052810190808051906020019092919080519060200190929190505050816000806101000a81548173ffffffffffffffffffffffffffffffffffffffff021916908373ffffffffffffffffffffffffffffffffffffffff16021790555080600160006101000a81548173ffffffffffffffffffffffffffffffffffffffff021916908373ffffffffffffffffffffffffffffffffffffffff160217905550600160009054906101000a900473ffffffffffffffffffffffffffffffffffffffff1673ffffffffffffffffffffffffffffffffffffffff1663d4d0d6e6836040518263ffffffff167c0100000000000000000000000000000000000000000000000000000000028152600401808273ffffffffffffffffffffffffffffffffffffffff1673ffffffffffffffffffffffffffffffffffffffff168152602001915050602060405180830381600087803b15801561017b57600080fd5b505af115801561018f573d6000803e3d6000fd5b505050506040513d60208110156101a557600080fd5b8101908080519060200190929190505050505050610b46806101c86000396000f30060806040526004361061006d576000357c0100000000000000000000000000000000000000000000000000000000900463ffffffff1680630382ad261461007257806336938354146100d75780636f9fdd661461012e5780639fecd55414610185578063c3b129e3146101ea575b600080fd5b34801561007e57600080fd5b506100bd600480360381019080803573ffffffffffffffffffffffffffffffffffffffff169060200190929190803590602001909291905050506102a1565b604051808215151515815260200191505060405180910390f35b3480156100e357600080fd5b506100ec61039c565b604051808273ffffffffffffffffffffffffffffffffffffffff1673ffffffffffffffffffffffffffffffffffffffff16815260200191505060405180910390f35b34801561013a57600080fd5b506101436103c1565b604051808273ffffffffffffffffffffffffffffffffffffffff1673ffffffffffffffffffffffffffffffffffffffff16815260200191505060405180910390f35b34801561019157600080fd5b506101d0600480360381019080803573ffffffffffffffffffffffffffffffffffffffff169060200190929190803590602001909291905050506103e7565b604051808215151515815260200191505060405180910390f35b3480156101f657600080fd5b5061025f600480360381019080803590602001908201803590602001908080601f01602080910402602001604051908101604052809392919081815260200183838082843782019150505050505091929192908035600019169060200190929190505050610a42565b604051808273ffffffffffffffffffffffffffffffffffffffff1673ffffffffffffffffffffffffffffffffffffffff16815260200191505060405180910390f35b60006102ad83836103e7565b15610326577f5637aa6b77cde2de563765b75a65099af73d3bf22cb9d089a64a01777823208e8383604051808373ffffffffffffffffffffffffffffffffffffffff1673ffffffffffffffffffffffffffffffffffffffff1681526020018281526020019250505060405180910390a160019050610396565b7fc1e461cfcaa9ff5efbb053582a325fbfebec1d94ac7e9d9958ee7f74c2b6b5588383604051808373ffffffffffffffffffffffffffffffffffffffff1673ffffffffffffffffffffffffffffffffffffffff1681526020018281526020019250505060405180910390a1600090505b92915050565b6000809054906101000a900473ffffffffffffffffffffffffffffffffffffffff1681565b600160009054906101000a900473ffffffffffffffffffffffffffffffffffffffff1681565b60008060008060608060008060008060008060009054906101000a900473ffffffffffffffffffffffffffffffffffffffff168c604051602001808373ffffffffffffffffffffffffffffffffffffffff1673ffffffffffffffffffffffffffffffffffffffff166c01000000000000000000000000028152601401828152602001925050506040516020818303038152906040526040518082805190602001908083835b6020831015156104b1578051825260208201915060208101905060208303925061048c565b6001836020036101000a038019825116818451168082178552505050505050905001915050604051809103902094508c73ffffffffffffffffffffffffffffffffffffffff1663c9100bcb866040518263ffffffff167c0100000000000000000000000000000000000000000000000000000000028152600401808260001916600019168152602001915050600060405180830381600087803b15801561055757600080fd5b505af115801561056b573d6000803e3d6000fd5b505050506040513d6000823e3d601f19601f8201168201806040525060c081101561059557600080fd5b8101908080519060200190929190805190602001909291908051906020019092919080516401000000008111156105cb57600080fd5b828101905060208101848111156105e157600080fd5b81518560018202830111640100000000821117156105fe57600080fd5b5050929190602001805164010000000081111561061a57600080fd5b8281019050602081018481111561063057600080fd5b815185600182028301116401000000008211171561064d57600080fd5b5050929190602001805164010000000081111561066957600080fd5b8281019050602081018481111561067f57600080fd5b815185600182028301116401000000008211171561069c57600080fd5b505092919050505050809a50819b50829c50839d50849e5050505050508c8c87604051602001808473ffffffffffffffffffffffffffffffffffffffff1673ffffffffffffffffffffffffffffffffffffffff166c0100000000000000000000000002815260140183815260200182805190602001908083835b60208310151561073b5780518252602082019150602081019050602083039250610716565b6001836020036101000a03801982511681845116808217855250505050505090500193505050506040516020818303038152906040526040518082805190602001908083835b6020831015156107a65780518252602082019150602081019050602083039250610781565b6001836020036101000a038019825116818451168082178552505050505050905001915050604051809103902093508360405160200180807f19457468657265756d205369676e6564204d6573736167653a0a333200000000815250601c0182600019166000191681526020019150506040516020818303038152906040526040518082805190602001908083835b60208310151561085a5780518252602082019150602081019050602083039250610835565b6001836020036101000a038019825116818451168082178552505050505050905001915050604051809103902092506108938784610a42565b915081604051602001808273ffffffffffffffffffffffffffffffffffffffff1673ffffffffffffffffffffffffffffffffffffffff166c010000000000000000000000000281526014019150506040516020818303038152906040526040518082805190602001908083835b6020831015156109255780518252602082019150602081019050602083039250610900565b6001836020036101000a038019825116818451168082178552505050505050905001915050604051809103902090506000809054906101000a900473ffffffffffffffffffffffffffffffffffffffff1673ffffffffffffffffffffffffffffffffffffffff1663d202158d8260036040518363ffffffff167c010000000000000000000000000000000000000000000000000000000002815260040180836000191660001916815260200182815260200192505050602060405180830381600087803b1580156109f557600080fd5b505af1158015610a09573d6000803e3d6000fd5b505050506040513d6020811015610a1f57600080fd5b81019080805190602001909291905050509a505050505050505050505092915050565b600080600080600060418751141515610a5e5760009450610b10565b6020870151935060408701519250606087015160001a9150601b8260ff161015610a8957601b820191505b600186838686604051600081526020016040526040518085600019166000191681526020018460ff1660ff1681526020018360001916600019168152602001826000191660001916815260200194505050505060206040516020810390808403906000865af1158015610b00573d6000803e3d6000fd5b5050506020604051035190508094505b50505050929150505600a165627a7a7230582088ac25c049f19bc9e0ac4b2b447ad8fceb5a60f06981dde049a0ae43d8a946960029",
  "source": "pragma solidity 0.4.25;\r\n\r\nimport './ClaimHolder.sol';\r\nimport './Trust.sol';\r\n\r\n// **Warning!** This file is a protoype version of our work around ERC 725.\r\n// This file is now out of date and **should not be used**.\r\n// Our current identity contracts are here:\r\n// https://github.com/OriginProtocol/origin/tree/master/origin-contracts/contracts/identity\r\n\r\ncontract ClaimVerifier {\r\n\r\n  event ClaimValid(ClaimHolder _identity, uint256 claimType);\r\n  event ClaimInvalid(ClaimHolder _identity, uint256 claimType);\r\n\r\n  ClaimHolder public trustedClaimHolder;\r\n  Trust public trust;\r\n\r\n  constructor(address _trustedClaimHolder, address _trustContract) public {\r\n    trustedClaimHolder = ClaimHolder(_trustedClaimHolder);\r\n    trust = Trust(_trustContract);\r\n    trust.addTrusted(_trustedClaimHolder);\r\n  }\r\n\r\n  function checkClaim(ClaimHolder _identity, uint256 claimType)\r\n    public\r\n    returns (bool claimValid)\r\n  {\r\n    if (claimIsValid(_identity, claimType)) {\r\n      emit ClaimValid(_identity, claimType);\r\n      return true;\r\n    } else {\r\n      emit ClaimInvalid(_identity, claimType);\r\n      return false;\r\n    }\r\n  }\r\n\r\n  function claimIsValid(ClaimHolder _identity, uint256 claimType)\r\n    public\r\n    view\r\n    returns (bool claimValid)\r\n  {\r\n    uint256 foundClaimType;\r\n    uint256 scheme;\r\n    address issuer;\r\n    bytes memory sig;\r\n    bytes memory data;\r\n\r\n    // Construct claimId (identifier + claim type)\r\n    bytes32 claimId = keccak256(abi.encodePacked(trustedClaimHolder, claimType));\r\n\r\n    // Fetch claim from user\r\n    ( foundClaimType, scheme, issuer, sig, data, ) = _identity.getClaim(claimId);\r\n\r\n    bytes32 dataHash = keccak256(abi.encodePacked(_identity, claimType, data));\r\n    bytes32 prefixedHash = keccak256(abi.encodePacked(\"\\x19Ethereum Signed Message:\\n32\", dataHash));\r\n\r\n    // Recover address of data signer\r\n    address recovered = getRecoveredAddress(sig, prefixedHash);\r\n\r\n    // Take hash of recovered address\r\n    bytes32 hashedAddr = keccak256(abi.encodePacked(recovered));\r\n\r\n    // Does the trusted identifier have they key which signed the user's claim?\r\n    return trustedClaimHolder.keyHasPurpose(hashedAddr, 3);\r\n  }\r\n\r\n  function getRecoveredAddress(bytes memory sig, bytes32 dataHash)\r\n      public\r\n      pure\r\n      returns (address addr)\r\n  {\r\n      bytes32 ra;\r\n      bytes32 sa;\r\n      uint8 va;\r\n\r\n      // Check the signature length\r\n      if (sig.length != 65) {\r\n        return address(0);\r\n      }\r\n\r\n      // Divide the signature in r, s and v variables\r\n      assembly {\r\n        ra := mload(add(sig, 32))\r\n        sa := mload(add(sig, 64))\r\n        va := byte(0, mload(add(sig, 96)))\r\n      }\r\n\r\n      if (va < 27) {\r\n        va += 27;\r\n      }\r\n\r\n      address recoveredAddress = ecrecover(dataHash, va, ra, sa);\r\n\r\n      return (recoveredAddress);\r\n  }\r\n\r\n}\r\n",
  "sourcePath": "/home/guillermo/academicToken/contracts/ClaimVerifier.sol",
  "compiler": {
    "name": "solc",
    "version": "0.4.25+commit.59dbf8f1.Emscripten.clang"
  },
  "schemaVersion": "2.0.2",
  "updatedAt": "2019-02-21T16:04:49.754Z"
}