{
  "contractName": "KeyHolder",
  "abi": [
    {
      "inputs": [],
      "payable": false,
      "stateMutability": "nonpayable",
      "type": "constructor"
    },
    {
      "anonymous": false,
      "inputs": [
        {
          "indexed": true,
          "name": "executionId",
          "type": "uint256"
        },
        {
          "indexed": true,
          "name": "to",
          "type": "address"
        },
        {
          "indexed": true,
          "name": "value",
          "type": "uint256"
        },
        {
          "indexed": false,
          "name": "data",
          "type": "bytes"
        }
      ],
      "name": "ExecutionFailed",
      "type": "event"
    },
    {
      "anonymous": false,
      "inputs": [
        {
          "indexed": true,
          "name": "key",
          "type": "bytes32"
        },
        {
          "indexed": true,
          "name": "purpose",
          "type": "uint256"
        },
        {
          "indexed": true,
          "name": "keyType",
          "type": "uint256"
        }
      ],
      "name": "KeyAdded",
      "type": "event"
    },
    {
      "anonymous": false,
      "inputs": [
        {
          "indexed": true,
          "name": "key",
          "type": "bytes32"
        },
        {
          "indexed": true,
          "name": "purpose",
          "type": "uint256"
        },
        {
          "indexed": true,
          "name": "keyType",
          "type": "uint256"
        }
      ],
      "name": "KeyRemoved",
      "type": "event"
    },
    {
      "anonymous": false,
      "inputs": [
        {
          "indexed": true,
          "name": "executionId",
          "type": "uint256"
        },
        {
          "indexed": true,
          "name": "to",
          "type": "address"
        },
        {
          "indexed": true,
          "name": "value",
          "type": "uint256"
        },
        {
          "indexed": false,
          "name": "data",
          "type": "bytes"
        }
      ],
      "name": "ExecutionRequested",
      "type": "event"
    },
    {
      "anonymous": false,
      "inputs": [
        {
          "indexed": true,
          "name": "executionId",
          "type": "uint256"
        },
        {
          "indexed": true,
          "name": "to",
          "type": "address"
        },
        {
          "indexed": true,
          "name": "value",
          "type": "uint256"
        },
        {
          "indexed": false,
          "name": "data",
          "type": "bytes"
        }
      ],
      "name": "Executed",
      "type": "event"
    },
    {
      "anonymous": false,
      "inputs": [
        {
          "indexed": true,
          "name": "executionId",
          "type": "uint256"
        },
        {
          "indexed": false,
          "name": "approved",
          "type": "bool"
        }
      ],
      "name": "Approved",
      "type": "event"
    },
    {
      "constant": true,
      "inputs": [
        {
          "name": "_key",
          "type": "bytes32"
        }
      ],
      "name": "getKey",
      "outputs": [
        {
          "name": "purpose",
          "type": "uint256"
        },
        {
          "name": "keyType",
          "type": "uint256"
        },
        {
          "name": "key",
          "type": "bytes32"
        }
      ],
      "payable": false,
      "stateMutability": "view",
      "type": "function"
    },
    {
      "constant": true,
      "inputs": [
        {
          "name": "_key",
          "type": "bytes32"
        }
      ],
      "name": "getKeyPurpose",
      "outputs": [
        {
          "name": "purpose",
          "type": "uint256"
        }
      ],
      "payable": false,
      "stateMutability": "view",
      "type": "function"
    },
    {
      "constant": true,
      "inputs": [
        {
          "name": "_purpose",
          "type": "uint256"
        }
      ],
      "name": "getKeysByPurpose",
      "outputs": [
        {
          "name": "_keys",
          "type": "bytes32[]"
        }
      ],
      "payable": false,
      "stateMutability": "view",
      "type": "function"
    },
    {
      "constant": false,
      "inputs": [
        {
          "name": "_key",
          "type": "bytes32"
        },
        {
          "name": "_purpose",
          "type": "uint256"
        },
        {
          "name": "_type",
          "type": "uint256"
        }
      ],
      "name": "addKey",
      "outputs": [
        {
          "name": "success",
          "type": "bool"
        }
      ],
      "payable": false,
      "stateMutability": "nonpayable",
      "type": "function"
    },
    {
      "constant": false,
      "inputs": [
        {
          "name": "_id",
          "type": "uint256"
        },
        {
          "name": "_approve",
          "type": "bool"
        }
      ],
      "name": "approve",
      "outputs": [
        {
          "name": "success",
          "type": "bool"
        }
      ],
      "payable": false,
      "stateMutability": "nonpayable",
      "type": "function"
    },
    {
      "constant": false,
      "inputs": [
        {
          "name": "_to",
          "type": "address"
        },
        {
          "name": "_value",
          "type": "uint256"
        },
        {
          "name": "_data",
          "type": "bytes"
        }
      ],
      "name": "execute",
      "outputs": [
        {
          "name": "executionId",
          "type": "uint256"
        }
      ],
      "payable": false,
      "stateMutability": "nonpayable",
      "type": "function"
    },
    {
      "constant": false,
      "inputs": [
        {
          "name": "_key",
          "type": "bytes32"
        }
      ],
      "name": "removeKey",
      "outputs": [
        {
          "name": "success",
          "type": "bool"
        }
      ],
      "payable": false,
      "stateMutability": "nonpayable",
      "type": "function"
    },
    {
      "constant": true,
      "inputs": [
        {
          "name": "_key",
          "type": "bytes32"
        },
        {
          "name": "_purpose",
          "type": "uint256"
        }
      ],
      "name": "keyHasPurpose",
      "outputs": [
        {
          "name": "result",
          "type": "bool"
        }
      ],
      "payable": false,
      "stateMutability": "view",
      "type": "function"
    }
  ],
  "bytecode": "0x608060405234801561001057600080fd5b50600033604051602001808273ffffffffffffffffffffffffffffffffffffffff1673ffffffffffffffffffffffffffffffffffffffff166c010000000000000000000000000281526014019150506040516020818303038152906040526040518082805190602001908083835b6020831015156100a3578051825260208201915060208101905060208303925061007e565b6001836020036101000a03801982511681845116808217855250505050505090500191505060405180910390209050806001600083600019166000191681526020019081526020016000206002018160001916905550600180600083600019166000191681526020019081526020016000206000018190555060018060008360001916600019168152602001908152602001600020600101819055506002600060018152602001908152602001600020819080600181540180825580915050906001820390600052602060002001600090919290919091509060001916905550600180600083600019166000191681526020019081526020016000206000015482600019167f480000bb1edad8ca1470381cc334b1917fbd51c6531f3a623ea8e0ec7e38a6e960405160405180910390a4506113aa806101e46000396000f30060806040526004361061008e576000357c0100000000000000000000000000000000000000000000000000000000900463ffffffff168063032c1a8a1461009357806312aaac70146100d85780631d38124014610133578063747442d314610190578063862642f5146101e15780639010f7261461022a578063b61d27f6146102ac578063d202158d14610353575b600080fd5b34801561009f57600080fd5b506100c260048036038101908080356000191690602001909291905050506103a6565b6040518082815260200191505060405180910390f35b3480156100e457600080fd5b5061010760048036038101908080356000191690602001909291905050506103ce565b604051808481526020018381526020018260001916600019168152602001935050505060405180910390f35b34801561013f57600080fd5b506101766004803603810190808035600019169060200190929190803590602001909291908035906020019092919050505061043d565b604051808215151515815260200191505060405180910390f35b34801561019c57600080fd5b506101c760048036038101908080359060200190929190803515159060200190929190505050610762565b604051808215151515815260200191505060405180910390f35b3480156101ed57600080fd5b506102106004803603810190808035600019169060200190929190505050610cdc565b604051808215151515815260200191505060405180910390f35b34801561023657600080fd5b5061025560048036038101908080359060200190929190505050610e47565b6040518080602001828103825283818151815260200191508051906020019060200280838360005b8381101561029857808201518184015260208101905061027d565b505050509050019250505060405180910390f35b3480156102b857600080fd5b5061033d600480360381019080803573ffffffffffffffffffffffffffffffffffffffff16906020019092919080359060200190929190803590602001908201803590602001908080601f0160208091040260200160405190810160405280939291908181526020018383808284378201915050505050509192919290505050610eb6565b6040518082815260200191505060405180910390f35b34801561035f57600080fd5b5061038c600480360381019080803560001916906020019092919080359060200190929190505050611270565b604051808215151515815260200191505060405180910390f35b6000600160008360001916600019168152602001908152602001600020600001549050919050565b60008060006001600085600019166000191681526020019081526020016000206000015460016000866000191660001916815260200190815260200160002060010154600160008760001916600019168152602001908152602001600020600201549250925092509193909250565b600083600019166001600086600019166000191681526020019081526020016000206002015460001916141515156104dd576040517f08c379a00000000000000000000000000000000000000000000000000000000081526004018080602001828103825260128152602001807f4b657920616c726561647920657869737473000000000000000000000000000081525060200191505060405180910390fd5b3073ffffffffffffffffffffffffffffffffffffffff163373ffffffffffffffffffffffffffffffffffffffff16141515610674576105d933604051602001808273ffffffffffffffffffffffffffffffffffffffff1673ffffffffffffffffffffffffffffffffffffffff166c010000000000000000000000000281526014019150506040516020818303038152906040526040518082805190602001908083835b6020831015156105a55780518252602082019150602081019050602083039250610580565b6001836020036101000a03801982511681845116808217855250505050505090500191505060405180910390206001611270565b1515610673576040517f08c379a00000000000000000000000000000000000000000000000000000000081526004018080602001828103825260238152602001807f53656e64657220646f6573206e6f742068617665206d616e6167656d656e742081526020017f6b6579000000000000000000000000000000000000000000000000000000000081525060400191505060405180910390fd5b5b8360016000866000191660001916815260200190815260200160002060020181600019169055508260016000866000191660001916815260200190815260200160002060000181905550816001600086600019166000191681526020019081526020016000206001018190555060026000848152602001908152602001600020849080600181540180825580915050906001820390600052602060002001600090919290919091509060001916905550818385600019167f480000bb1edad8ca1470381cc334b1917fbd51c6531f3a623ea8e0ec7e38a6e960405160405180910390a4600190509392505050565b600061082b33604051602001808273ffffffffffffffffffffffffffffffffffffffff1673ffffffffffffffffffffffffffffffffffffffff166c010000000000000000000000000281526014019150506040516020818303038152906040526040518082805190602001908083835b6020831015156107f757805182526020820191506020810190506020830392506107d2565b6001836020036101000a03801982511681845116808217855250505050505090500191505060405180910390206002611270565b151561089f576040517f08c379a000000000000000000000000000000000000000000000000000000000815260040180806020018281038252601f8152602001807f53656e64657220646f6573206e6f74206861766520616374696f6e206b65790081525060200191505060405180910390fd5b827fb3932da477fe5d6c8ff2eafef050c0f3a1af18fc07121001482600f36f3715d883604051808215151515815260200191505060405180910390a2600115158215151415610ca25760016003600085815260200190815260200160002060030160006101000a81548160ff0219169083151502179055506003600084815260200190815260200160002060000160009054906101000a900473ffffffffffffffffffffffffffffffffffffffff1673ffffffffffffffffffffffffffffffffffffffff166003600085815260200190815260200160002060020160405180828054600181600116156101000203166002900480156109df5780601f106109b4576101008083540402835291602001916109df565b820191906000526020600020905b8154815290600101906020018083116109c257829003601f168201915b50509150506000604051808303816000865af191505090508015610b675760016003600085815260200190815260200160002060030160016101000a81548160ff02191690831515021790555060036000848152602001908152602001600020600101546003600085815260200190815260200160002060000160009054906101000a900473ffffffffffffffffffffffffffffffffffffffff1673ffffffffffffffffffffffffffffffffffffffff16847f1f920dbda597d7bf95035464170fa58d0a4b57f13a1c315ace6793b9f63688b8600360008881526020019081526020016000206002016040518080602001828103825283818154600181600116156101000203166002900481526020019150805460018160011615610100020316600290048015610b515780601f10610b2657610100808354040283529160200191610b51565b820191906000526020600020905b815481529060010190602001808311610b3457829003601f168201915b50509250505060405180910390a4809050610cd6565b60036000848152602001908152602001600020600101546003600085815260200190815260200160002060000160009054906101000a900473ffffffffffffffffffffffffffffffffffffffff1673ffffffffffffffffffffffffffffffffffffffff16847fe10c49d9f7c71da23262367013434763cfdb2332267641728d25cd712c5c6a68600360008881526020019081526020016000206002016040518080602001828103825283818154600181600116156101000203166002900481526020019150805460018160011615610100020316600290048015610c8c5780601f10610c6157610100808354040283529160200191610c8c565b820191906000526020600020905b815481529060010190602001808311610c6f57829003601f168201915b50509250505060405180910390a4809050610cd6565b60006003600085815260200190815260200160002060030160006101000a81548160ff021916908315150217905550600190505b92915050565b600081600019166001600084600019166000191681526020019081526020016000206002015460001916141515610d7b576040517f08c379a000000000000000000000000000000000000000000000000000000000815260040180806020018281038252600b8152602001807f4e6f2073756368206b657900000000000000000000000000000000000000000081525060200191505060405180910390fd5b600160008360001916600019168152602001908152602001600020600101546001600084600019166000191681526020019081526020016000206000015460016000856000191660001916815260200190815260200160002060020154600019167f585a4aef50f8267a92b32412b331b20f7f8b96f2245b253b9cc50dcc621d339760405160405180910390a460016000836000191660001916815260200190815260200160002060008082016000905560018201600090556002820160009055505060019050919050565b606060026000838152602001908152602001600020805480602002602001604051908101604052809291908181526020018280548015610eaa57602002820191906000526020600020905b81546000191681526020019060010190808311610e92575b50505050509050919050565b6000600360008054815260200190815260200160002060030160019054906101000a900460ff16151515610f52576040517f08c379a00000000000000000000000000000000000000000000000000000000081526004018080602001828103825260108152602001807f416c72656164792065786563757465640000000000000000000000000000000081525060200191505060405180910390fd5b83600360008054815260200190815260200160002060000160006101000a81548173ffffffffffffffffffffffffffffffffffffffff021916908373ffffffffffffffffffffffffffffffffffffffff160217905550826003600080548152602001908152602001600020600101819055508160036000805481526020019081526020016000206002019080519060200190610fef9291906112d9565b50828473ffffffffffffffffffffffffffffffffffffffff166000547f8afcfabcb00e47a53a8fc3e9f23ff47ee1926194bb1350dd007c50b412a6cee8856040518080602001828103825283818151815260200191508051906020019080838360005b8381101561106d578082015181840152602081019050611052565b50505050905090810190601f16801561109a5780820380516001836020036101000a031916815260200191505b509250505060405180910390a461116e33604051602001808273ffffffffffffffffffffffffffffffffffffffff1673ffffffffffffffffffffffffffffffffffffffff166c010000000000000000000000000281526014019150506040516020818303038152906040526040518082805190602001908083835b60208310151561113a5780518252602082019150602081019050602083039250611115565b6001836020036101000a03801982511681845116808217855250505050505090500191505060405180910390206001611270565b8061123c575061123b33604051602001808273ffffffffffffffffffffffffffffffffffffffff1673ffffffffffffffffffffffffffffffffffffffff166c010000000000000000000000000281526014019150506040516020818303038152906040526040518082805190602001908083835b60208310151561120757805182526020820191506020810190506020830392506111e2565b6001836020036101000a03801982511681845116808217855250505050505090500191505060405180910390206002611270565b5b156112505761124e6000546001610762565b505b600080815480929190600101919050555060016000540390509392505050565b6000806000600102600160008660001916600019168152602001908152602001600020600201546000191614156112aa57600091506112d2565b8260016000866000191660001916815260200190815260200160002060000154111590508091505b5092915050565b828054600181600116156101000203166002900490600052602060002090601f016020900481019282601f1061131a57805160ff1916838001178555611348565b82800160010185558215611348579182015b8281111561134757825182559160200191906001019061132c565b5b5090506113559190611359565b5090565b61137b91905b8082111561137757600081600090555060010161135f565b5090565b905600a165627a7a7230582083b3e97d6f0a6a19ab0a7d68c4c81d784d6e4158adccd0a055193f1587d7c8cf0029",
  "source": "pragma solidity 0.4.25;\r\n\r\nimport './ERC725.sol';\r\n\r\n// **Warning!** This file is a protoype version of our work around ERC 725.\r\n// This file is now out of date and **should not be used**.\r\n// Our current identity contracts are here:\r\n// https://github.com/OriginProtocol/origin/tree/master/origin-contracts/contracts/identity\r\n\r\ncontract KeyHolder is ERC725 {\r\n\r\n    uint256 executionNonce;\r\n\r\n    struct Execution {\r\n        address to;\r\n        uint256 value;\r\n        bytes data;\r\n        bool approved;\r\n        bool executed;\r\n    }\r\n\r\n    mapping (bytes32 => Key) keys;\r\n    mapping (uint256 => bytes32[]) keysByPurpose;\r\n    mapping (uint256 => Execution) executions;\r\n\r\n    event ExecutionFailed(uint256 indexed executionId, address indexed to, uint256 indexed value, bytes data);\r\n\r\n    constructor() public {\r\n        bytes32 _key = keccak256(abi.encodePacked(msg.sender));\r\n        keys[_key].key = _key;\r\n        keys[_key].purpose = 1;\r\n        keys[_key].keyType = 1;\r\n        keysByPurpose[1].push(_key);\r\n        emit KeyAdded(_key, keys[_key].purpose, 1);\r\n    }\r\n\r\n    function getKey(bytes32 _key)\r\n        public\r\n        view\r\n        returns(uint256 purpose, uint256 keyType, bytes32 key)\r\n    {\r\n        return (keys[_key].purpose, keys[_key].keyType, keys[_key].key);\r\n    }\r\n\r\n    function getKeyPurpose(bytes32 _key)\r\n        public\r\n        view\r\n        returns(uint256 purpose)\r\n    {\r\n        return (keys[_key].purpose);\r\n    }\r\n\r\n    function getKeysByPurpose(uint256 _purpose)\r\n        public\r\n        view\r\n        returns(bytes32[] memory _keys)\r\n    {\r\n        return keysByPurpose[_purpose];\r\n    }\r\n\r\n    function addKey(bytes32 _key, uint256 _purpose, uint256 _type)\r\n        public\r\n        returns (bool success)\r\n    {\r\n        require(keys[_key].key != _key, \"Key already exists\"); // Key should not already exist\r\n        if (msg.sender != address(this)) {\r\n          require(keyHasPurpose(keccak256(abi.encodePacked(msg.sender)), 1), \"Sender does not have management key\"); // Sender has MANAGEMENT_KEY\r\n        }\r\n\r\n        keys[_key].key = _key;\r\n        keys[_key].purpose = _purpose;\r\n        keys[_key].keyType = _type;\r\n\r\n        keysByPurpose[_purpose].push(_key);\r\n\r\n        emit KeyAdded(_key, _purpose, _type);\r\n\r\n        return true;\r\n    }\r\n\r\n    function approve(uint256 _id, bool _approve)\r\n        public\r\n        returns (bool success)\r\n    {\r\n        require(keyHasPurpose(keccak256(abi.encodePacked(msg.sender)), 2), \"Sender does not have action key\");\r\n\r\n        emit Approved(_id, _approve);\r\n\r\n\r\n        if (_approve == true) {\r\n            executions[_id].approved = true;\r\n            success = executions[_id].to.call(executions[_id].data);\r\n            if (success) {\r\n                executions[_id].executed = true;\r\n                emit Executed(\r\n                    _id,\r\n                    executions[_id].to,\r\n                    executions[_id].value,\r\n                    executions[_id].data\r\n                );\r\n                return success;\r\n            } else {\r\n                emit ExecutionFailed(\r\n                    _id,\r\n                    executions[_id].to,\r\n                    executions[_id].value,\r\n                    executions[_id].data\r\n                );\r\n                return success;\r\n            }\r\n        } else {\r\n            executions[_id].approved = false;\r\n        }\r\n        return true;\r\n    }\r\n\r\n    function execute(address _to, uint256 _value, bytes memory _data)\r\n        public\r\n        returns (uint256 executionId)\r\n    {\r\n        require(!executions[executionNonce].executed, \"Already executed\");\r\n        executions[executionNonce].to = _to;\r\n        executions[executionNonce].value = _value;\r\n        executions[executionNonce].data = _data;\r\n\r\n        emit ExecutionRequested(executionNonce, _to, _value, _data);\r\n\r\n        if (keyHasPurpose(keccak256(abi.encodePacked(msg.sender)),1) || keyHasPurpose(keccak256(abi.encodePacked(msg.sender)),2)) {\r\n            approve(executionNonce, true);\r\n        }\r\n\r\n        executionNonce++;\r\n        return executionNonce-1;\r\n    }\r\n\r\n    function removeKey(bytes32 _key)\r\n        public\r\n        returns (bool success)\r\n    {\r\n        require(keys[_key].key == _key, \"No such key\");\r\n        emit KeyRemoved(keys[_key].key, keys[_key].purpose, keys[_key].keyType);\r\n\r\n        /* uint index;\r\n        (index,) = keysByPurpose[keys[_key].purpose.indexOf(_key);\r\n        keysByPurpose[keys[_key].purpose.removeByIndex(index); */\r\n\r\n        delete keys[_key];\r\n\r\n        return true;\r\n    }\r\n\r\n    function keyHasPurpose(bytes32 _key, uint256 _purpose)\r\n        public\r\n        view\r\n        returns(bool result)\r\n    {\r\n        bool isThere;\r\n        if (keys[_key].key == 0) return false;\r\n        isThere = keys[_key].purpose <= _purpose;\r\n        return isThere;\r\n    }\r\n\r\n}\r\n",
  "sourcePath": "/home/guillermo/academicToken/contracts/KeyHolder.sol",
  "compiler": {
    "name": "solc",
    "version": "0.4.25+commit.59dbf8f1.Emscripten.clang"
  },
  "schemaVersion": "2.0.2",
  "updatedAt": "2019-02-21T16:04:49.773Z"
}