{
  "contractName": "Trust",
  "abi": [
    {
      "anonymous": false,
      "inputs": [
        {
          "indexed": false,
          "name": "",
          "type": "address[]"
        }
      ],
      "name": "Trusted",
      "type": "event"
    },
    {
      "constant": false,
      "inputs": [
        {
          "name": "trustedClaimHolder",
          "type": "address"
        }
      ],
      "name": "addTrusted",
      "outputs": [
        {
          "name": "",
          "type": "bool"
        }
      ],
      "payable": false,
      "stateMutability": "nonpayable",
      "type": "function"
    },
    {
      "constant": false,
      "inputs": [
        {
          "name": "trustedClaimHolder",
          "type": "address"
        }
      ],
      "name": "getTrusted",
      "outputs": [
        {
          "name": "",
          "type": "address[]"
        }
      ],
      "payable": false,
      "stateMutability": "nonpayable",
      "type": "function"
    }
  ],
  "bytecode": "0x608060405234801561001057600080fd5b506103d1806100206000396000f30060806040526004361061004c576000357c0100000000000000000000000000000000000000000000000000000000900463ffffffff168063b09cba9214610051578063d4d0d6e6146100e9575b600080fd5b34801561005d57600080fd5b50610092600480360381019080803573ffffffffffffffffffffffffffffffffffffffff169060200190929190505050610144565b6040518080602001828103825283818151815260200191508051906020019060200280838360005b838110156100d55780820151818401526020810190506100ba565b505050509050019250505060405180910390f35b3480156100f557600080fd5b5061012a600480360381019080803573ffffffffffffffffffffffffffffffffffffffff1690602001909291905050506102f8565b604051808215151515815260200191505060405180910390f35b60607fba5a7fb98d027e4d7b86dcc1fe467206104b8a29e22ceb7ca0565bc4070f689a6000808473ffffffffffffffffffffffffffffffffffffffff1673ffffffffffffffffffffffffffffffffffffffff1681526020019081526020016000206040518080602001828103825283818154815260200191508054801561022057602002820191906000526020600020905b8160009054906101000a900473ffffffffffffffffffffffffffffffffffffffff1673ffffffffffffffffffffffffffffffffffffffff16815260200190600101908083116101d6575b50509250505060405180910390a16000808373ffffffffffffffffffffffffffffffffffffffff1673ffffffffffffffffffffffffffffffffffffffff1681526020019081526020016000208054806020026020016040519081016040528092919081815260200182805480156102ec57602002820191906000526020600020905b8160009054906101000a900473ffffffffffffffffffffffffffffffffffffffff1673ffffffffffffffffffffffffffffffffffffffff16815260200190600101908083116102a2575b50505050509050919050565b60008060008373ffffffffffffffffffffffffffffffffffffffff1673ffffffffffffffffffffffffffffffffffffffff1681526020019081526020016000203390806001815401808255809150509060018203906000526020600020016000909192909190916101000a81548173ffffffffffffffffffffffffffffffffffffffff021916908373ffffffffffffffffffffffffffffffffffffffff16021790555050600190509190505600a165627a7a72305820f44ccba3d16fc914d74fc38c552e57b3efe2844a700dfc798ff04bbb566a0a230029",
  "source": "pragma solidity 0.4.25;\n\ncontract Trust {\n\n    mapping(address => address[]) trustedBy;\n\n    event Trusted(address[]);\n\n    function addTrusted(address trustedClaimHolder) public returns (bool) {\n        trustedBy[trustedClaimHolder].push(msg.sender);\n        return true;\n    }\n\n    function getTrusted(address trustedClaimHolder) public returns (address [] memory) {\n        emit Trusted(trustedBy[trustedClaimHolder]);\n        return trustedBy[trustedClaimHolder];\n    }\n}\n",
  "sourcePath": "/home/guillermo/academicToken/contracts/Trust.sol",
  "compiler": {
    "name": "solc",
    "version": "0.4.25+commit.59dbf8f1.Emscripten.clang"
  },
  "schemaVersion": "2.0.2",
  "updatedAt": "2019-02-21T16:04:49.776Z"
}